{
  "_format": "hh-sol-artifact-1",
  "contractName": "USDC",
  "sourceName": "contracts/USDC.sol",
  "abi": [
    {
      "inputs": [
        {
          "internalType": "uint256",
          "name": "initialSupply",
          "type": "uint256"
        },
        {
          "internalType": "address",
          "name": "admin",
          "type": "address"
        }
      ],
      "stateMutability": "nonpayable",
      "type": "constructor"
    },
    {
      "anonymous": false,
      "inputs": [
        {
          "indexed": true,
          "internalType": "address",
          "name": "owner",
          "type": "address"
        },
        {
          "indexed": true,
          "internalType": "address",
          "name": "spender",
          "type": "address"
        },
        {
          "indexed": false,
          "internalType": "uint256",
          "name": "value",
          "type": "uint256"
        }
      ],
      "name": "Approval",
      "type": "event"
    },
    {
      "anonymous": false,
      "inputs": [
        {
          "indexed": false,
          "internalType": "address",
          "name": "account",
          "type": "address"
        }
      ],
      "name": "Paused",
      "type": "event"
    },
    {
      "anonymous": false,
      "inputs": [
        {
          "indexed": true,
          "internalType": "bytes32",
          "name": "role",
          "type": "bytes32"
        },
        {
          "indexed": true,
          "internalType": "bytes32",
          "name": "previousAdminRole",
          "type": "bytes32"
        },
        {
          "indexed": true,
          "internalType": "bytes32",
          "name": "newAdminRole",
          "type": "bytes32"
        }
      ],
      "name": "RoleAdminChanged",
      "type": "event"
    },
    {
      "anonymous": false,
      "inputs": [
        {
          "indexed": true,
          "internalType": "bytes32",
          "name": "role",
          "type": "bytes32"
        },
        {
          "indexed": true,
          "internalType": "address",
          "name": "account",
          "type": "address"
        },
        {
          "indexed": true,
          "internalType": "address",
          "name": "sender",
          "type": "address"
        }
      ],
      "name": "RoleGranted",
      "type": "event"
    },
    {
      "anonymous": false,
      "inputs": [
        {
          "indexed": true,
          "internalType": "bytes32",
          "name": "role",
          "type": "bytes32"
        },
        {
          "indexed": true,
          "internalType": "address",
          "name": "account",
          "type": "address"
        },
        {
          "indexed": true,
          "internalType": "address",
          "name": "sender",
          "type": "address"
        }
      ],
      "name": "RoleRevoked",
      "type": "event"
    },
    {
      "anonymous": false,
      "inputs": [
        {
          "indexed": true,
          "internalType": "address",
          "name": "from",
          "type": "address"
        },
        {
          "indexed": true,
          "internalType": "address",
          "name": "to",
          "type": "address"
        },
        {
          "indexed": false,
          "internalType": "uint256",
          "name": "value",
          "type": "uint256"
        }
      ],
      "name": "Transfer",
      "type": "event"
    },
    {
      "anonymous": false,
      "inputs": [
        {
          "indexed": false,
          "internalType": "address",
          "name": "account",
          "type": "address"
        }
      ],
      "name": "Unpaused",
      "type": "event"
    },
    {
      "inputs": [],
      "name": "DEFAULT_ADMIN_ROLE",
      "outputs": [
        {
          "internalType": "bytes32",
          "name": "",
          "type": "bytes32"
        }
      ],
      "stateMutability": "view",
      "type": "function"
    },
    {
      "inputs": [],
      "name": "MINTER_ROLE",
      "outputs": [
        {
          "internalType": "bytes32",
          "name": "",
          "type": "bytes32"
        }
      ],
      "stateMutability": "view",
      "type": "function"
    },
    {
      "inputs": [],
      "name": "PAUSER_ROLE",
      "outputs": [
        {
          "internalType": "bytes32",
          "name": "",
          "type": "bytes32"
        }
      ],
      "stateMutability": "view",
      "type": "function"
    },
    {
      "inputs": [
        {
          "internalType": "address",
          "name": "owner",
          "type": "address"
        },
        {
          "internalType": "address",
          "name": "spender",
          "type": "address"
        }
      ],
      "name": "allowance",
      "outputs": [
        {
          "internalType": "uint256",
          "name": "",
          "type": "uint256"
        }
      ],
      "stateMutability": "view",
      "type": "function"
    },
    {
      "inputs": [
        {
          "internalType": "address",
          "name": "spender",
          "type": "address"
        },
        {
          "internalType": "uint256",
          "name": "amount",
          "type": "uint256"
        }
      ],
      "name": "approve",
      "outputs": [
        {
          "internalType": "bool",
          "name": "",
          "type": "bool"
        }
      ],
      "stateMutability": "nonpayable",
      "type": "function"
    },
    {
      "inputs": [
        {
          "internalType": "address",
          "name": "account",
          "type": "address"
        }
      ],
      "name": "balanceOf",
      "outputs": [
        {
          "internalType": "uint256",
          "name": "",
          "type": "uint256"
        }
      ],
      "stateMutability": "view",
      "type": "function"
    },
    {
      "inputs": [],
      "name": "decimals",
      "outputs": [
        {
          "internalType": "uint8",
          "name": "",
          "type": "uint8"
        }
      ],
      "stateMutability": "view",
      "type": "function"
    },
    {
      "inputs": [
        {
          "internalType": "address",
          "name": "spender",
          "type": "address"
        },
        {
          "internalType": "uint256",
          "name": "subtractedValue",
          "type": "uint256"
        }
      ],
      "name": "decreaseAllowance",
      "outputs": [
        {
          "internalType": "bool",
          "name": "",
          "type": "bool"
        }
      ],
      "stateMutability": "nonpayable",
      "type": "function"
    },
    {
      "inputs": [
        {
          "internalType": "uint256",
          "name": "amount",
          "type": "uint256"
        }
      ],
      "name": "freeMint",
      "outputs": [],
      "stateMutability": "nonpayable",
      "type": "function"
    },
    {
      "inputs": [
        {
          "internalType": "bytes32",
          "name": "role",
          "type": "bytes32"
        }
      ],
      "name": "getRoleAdmin",
      "outputs": [
        {
          "internalType": "bytes32",
          "name": "",
          "type": "bytes32"
        }
      ],
      "stateMutability": "view",
      "type": "function"
    },
    {
      "inputs": [],
      "name": "getRoles",
      "outputs": [
        {
          "internalType": "bytes32[]",
          "name": "",
          "type": "bytes32[]"
        }
      ],
      "stateMutability": "view",
      "type": "function"
    },
    {
      "inputs": [
        {
          "internalType": "bytes32",
          "name": "role",
          "type": "bytes32"
        },
        {
          "internalType": "address",
          "name": "account",
          "type": "address"
        }
      ],
      "name": "grantRole",
      "outputs": [],
      "stateMutability": "nonpayable",
      "type": "function"
    },
    {
      "inputs": [
        {
          "internalType": "bytes32",
          "name": "role",
          "type": "bytes32"
        },
        {
          "internalType": "address",
          "name": "account",
          "type": "address"
        }
      ],
      "name": "hasRole",
      "outputs": [
        {
          "internalType": "bool",
          "name": "",
          "type": "bool"
        }
      ],
      "stateMutability": "view",
      "type": "function"
    },
    {
      "inputs": [
        {
          "internalType": "address",
          "name": "spender",
          "type": "address"
        },
        {
          "internalType": "uint256",
          "name": "addedValue",
          "type": "uint256"
        }
      ],
      "name": "increaseAllowance",
      "outputs": [
        {
          "internalType": "bool",
          "name": "",
          "type": "bool"
        }
      ],
      "stateMutability": "nonpayable",
      "type": "function"
    },
    {
      "inputs": [],
      "name": "name",
      "outputs": [
        {
          "internalType": "string",
          "name": "",
          "type": "string"
        }
      ],
      "stateMutability": "view",
      "type": "function"
    },
    {
      "inputs": [],
      "name": "pause",
      "outputs": [],
      "stateMutability": "nonpayable",
      "type": "function"
    },
    {
      "inputs": [],
      "name": "paused",
      "outputs": [
        {
          "internalType": "bool",
          "name": "",
          "type": "bool"
        }
      ],
      "stateMutability": "view",
      "type": "function"
    },
    {
      "inputs": [
        {
          "internalType": "bytes32",
          "name": "role",
          "type": "bytes32"
        },
        {
          "internalType": "address",
          "name": "account",
          "type": "address"
        }
      ],
      "name": "renounceRole",
      "outputs": [],
      "stateMutability": "nonpayable",
      "type": "function"
    },
    {
      "inputs": [
        {
          "internalType": "bytes32",
          "name": "role",
          "type": "bytes32"
        },
        {
          "internalType": "address",
          "name": "account",
          "type": "address"
        }
      ],
      "name": "revokeRole",
      "outputs": [],
      "stateMutability": "nonpayable",
      "type": "function"
    },
    {
      "inputs": [
        {
          "internalType": "bytes4",
          "name": "interfaceId",
          "type": "bytes4"
        }
      ],
      "name": "supportsInterface",
      "outputs": [
        {
          "internalType": "bool",
          "name": "",
          "type": "bool"
        }
      ],
      "stateMutability": "view",
      "type": "function"
    },
    {
      "inputs": [],
      "name": "symbol",
      "outputs": [
        {
          "internalType": "string",
          "name": "",
          "type": "string"
        }
      ],
      "stateMutability": "view",
      "type": "function"
    },
    {
      "inputs": [],
      "name": "totalSupply",
      "outputs": [
        {
          "internalType": "uint256",
          "name": "",
          "type": "uint256"
        }
      ],
      "stateMutability": "view",
      "type": "function"
    },
    {
      "inputs": [
        {
          "internalType": "address",
          "name": "recipient",
          "type": "address"
        },
        {
          "internalType": "uint256",
          "name": "amount",
          "type": "uint256"
        }
      ],
      "name": "transfer",
      "outputs": [
        {
          "internalType": "bool",
          "name": "",
          "type": "bool"
        }
      ],
      "stateMutability": "nonpayable",
      "type": "function"
    },
    {
      "inputs": [
        {
          "internalType": "address",
          "name": "sender",
          "type": "address"
        },
        {
          "internalType": "address",
          "name": "recipient",
          "type": "address"
        },
        {
          "internalType": "uint256",
          "name": "amount",
          "type": "uint256"
        }
      ],
      "name": "transferFrom",
      "outputs": [
        {
          "internalType": "bool",
          "name": "",
          "type": "bool"
        }
      ],
      "stateMutability": "nonpayable",
      "type": "function"
    },
    {
      "inputs": [],
      "name": "unpause",
      "outputs": [],
      "stateMutability": "nonpayable",
      "type": "function"
    }
  ],
  "bytecode": "0x60806040523480156200001157600080fd5b506040516200331038038062003310833981810160405281019062000037919062000583565b6040518060400160405280600e81526020017f55534420537461626c65636f696e0000000000000000000000000000000000008152506040518060400160405280600481526020017f555344430000000000000000000000000000000000000000000000000000000081525060008060006101000a81548160ff0219169083151502179055508160049080519060200190620000d5929190620004a5565b508060059080519060200190620000ee929190620004a5565b505050620001066000801b826200012060201b60201c565b6200011833836200013660201b60201c565b50506200084a565b620001328282620002b060201b60201c565b5050565b600073ffffffffffffffffffffffffffffffffffffffff168273ffffffffffffffffffffffffffffffffffffffff161415620001a9576040517f08c379a0000000000000000000000000000000000000000000000000000000008152600401620001a09062000645565b60405180910390fd5b620001bd60008383620003a260201b60201c565b8060036000828254620001d1919062000695565b9250508190555080600160008473ffffffffffffffffffffffffffffffffffffffff1673ffffffffffffffffffffffffffffffffffffffff168152602001908152602001600020600082825462000229919062000695565b925050819055508173ffffffffffffffffffffffffffffffffffffffff16600073ffffffffffffffffffffffffffffffffffffffff167fddf252ad1be2c89b69c2b068fc378daa952ba7f163c4a11628f55a4df523b3ef8360405162000290919062000667565b60405180910390a3620002ac600083836200041260201b60201c565b5050565b620002c282826200041760201b60201c565b6200039e5760016006600084815260200190815260200160002060000160008373ffffffffffffffffffffffffffffffffffffffff1673ffffffffffffffffffffffffffffffffffffffff16815260200190815260200160002060006101000a81548160ff021916908315150217905550620003436200048260201b60201c565b73ffffffffffffffffffffffffffffffffffffffff168173ffffffffffffffffffffffffffffffffffffffff16837f2f8788117e7eff1d82e926ec794901d17c78024a50270940304540a733656f0d60405160405180910390a45b5050565b620003b26200048a60201b60201c565b15620003f5576040517f08c379a0000000000000000000000000000000000000000000000000000000008152600401620003ec9062000623565b60405180910390fd5b6200040d838383620004a060201b62000f0f1760201c565b505050565b505050565b60006006600084815260200190815260200160002060000160008373ffffffffffffffffffffffffffffffffffffffff1673ffffffffffffffffffffffffffffffffffffffff16815260200190815260200160002060009054906101000a900460ff16905092915050565b600033905090565b60008060009054906101000a900460ff16905090565b505050565b828054620004b39062000730565b90600052602060002090601f016020900481019282620004d7576000855562000523565b82601f10620004f257805160ff191683800117855562000523565b8280016001018555821562000523579182015b828111156200052257825182559160200191906001019062000505565b5b50905062000532919062000536565b5090565b5b808211156200055157600081600090555060010162000537565b5090565b600081519050620005668162000816565b92915050565b6000815190506200057d8162000830565b92915050565b600080604083850312156200059757600080fd5b6000620005a7858286016200056c565b9250506020620005ba8582860162000555565b9150509250929050565b6000620005d360108362000684565b9150620005e082620007c4565b602082019050919050565b6000620005fa601f8362000684565b91506200060782620007ed565b602082019050919050565b6200061d8162000726565b82525050565b600060208201905081810360008301526200063e81620005c4565b9050919050565b600060208201905081810360008301526200066081620005eb565b9050919050565b60006020820190506200067e600083018462000612565b92915050565b600082825260208201905092915050565b6000620006a28262000726565b9150620006af8362000726565b9250827fffffffffffffffffffffffffffffffffffffffffffffffffffffffffffffffff03821115620006e757620006e662000766565b5b828201905092915050565b6000620006ff8262000706565b9050919050565b600073ffffffffffffffffffffffffffffffffffffffff82169050919050565b6000819050919050565b600060028204905060018216806200074957607f821691505b6020821081141562000760576200075f62000795565b5b50919050565b7f4e487b7100000000000000000000000000000000000000000000000000000000600052601160045260246000fd5b7f4e487b7100000000000000000000000000000000000000000000000000000000600052602260045260246000fd5b7f5061757361626c653a2070617573656400000000000000000000000000000000600082015250565b7f45524332303a206d696e7420746f20746865207a65726f206164647265737300600082015250565b6200082181620006f2565b81146200082d57600080fd5b50565b6200083b8162000726565b81146200084757600080fd5b50565b612ab6806200085a6000396000f3fe608060405234801561001057600080fd5b50600436106101735760003560e01c806370a08231116100de578063a217fddf11610097578063d539139311610071578063d539139314610462578063d547741f14610480578063dd62ed3e1461049c578063e63ab1e9146104cc57610173565b8063a217fddf146103e4578063a457c2d714610402578063a9059cbb1461043257610173565b806370a082311461032257806371061398146103525780637c928fe9146103705780638456cb591461038c57806391d148541461039657806395d89b41146103c657610173565b80632f2ff15d116101305780632f2ff15d14610274578063313ce5671461029057806336568abe146102ae57806339509351146102ca5780633f4ba83a146102fa5780635c975abb1461030457610173565b806301ffc9a71461017857806306fdde03146101a8578063095ea7b3146101c657806318160ddd146101f657806323b872dd14610214578063248a9ca314610244575b600080fd5b610192600480360381019061018d9190611dd9565b6104ea565b60405161019f91906121c6565b60405180910390f35b6101b0610564565b6040516101bd91906121fc565b60405180910390f35b6101e060048036038101906101db9190611d38565b6105f6565b6040516101ed91906121c6565b60405180910390f35b6101fe610614565b60405161020b919061239e565b60405180910390f35b61022e60048036038101906102299190611ce9565b61061e565b60405161023b91906121c6565b60405180910390f35b61025e60048036038101906102599190611d74565b610716565b60405161026b91906121e1565b60405180910390f35b61028e60048036038101906102899190611d9d565b610736565b005b61029861075f565b6040516102a591906123b9565b60405180910390f35b6102c860048036038101906102c39190611d9d565b610768565b005b6102e460048036038101906102df9190611d38565b6107eb565b6040516102f191906121c6565b60405180910390f35b610302610897565b005b61030c6108d4565b60405161031991906121c6565b60405180910390f35b61033c60048036038101906103379190611c84565b6108ea565b604051610349919061239e565b60405180910390f35b61035a610933565b60405161036791906121a4565b60405180910390f35b61038a60048036038101906103859190611e02565b610b8d565b005b610394610bcd565b005b6103b060048036038101906103ab9190611d9d565b610c0a565b6040516103bd91906121c6565b60405180910390f35b6103ce610c75565b6040516103db91906121fc565b60405180910390f35b6103ec610d07565b6040516103f991906121e1565b60405180910390f35b61041c60048036038101906104179190611d38565b610d0e565b60405161042991906121c6565b60405180910390f35b61044c60048036038101906104479190611d38565b610df9565b60405161045991906121c6565b60405180910390f35b61046a610e17565b60405161047791906121e1565b60405180910390f35b61049a60048036038101906104959190611d9d565b610e3b565b005b6104b660048036038101906104b19190611cad565b610e64565b6040516104c3919061239e565b60405180910390f35b6104d4610eeb565b6040516104e191906121e1565b60405180910390f35b60007f7965db0b000000000000000000000000000000000000000000000000000000007bffffffffffffffffffffffffffffffffffffffffffffffffffffffff1916827bffffffffffffffffffffffffffffffffffffffffffffffffffffffff1916148061055d575061055c82610f14565b5b9050919050565b606060048054610573906125cc565b80601f016020809104026020016040519081016040528092919081815260200182805461059f906125cc565b80156105ec5780601f106105c1576101008083540402835291602001916105ec565b820191906000526020600020905b8154815290600101906020018083116105cf57829003601f168201915b5050505050905090565b600061060a610603610f7e565b8484610f86565b6001905092915050565b6000600354905090565b600061062b848484611151565b6000600260008673ffffffffffffffffffffffffffffffffffffffff1673ffffffffffffffffffffffffffffffffffffffff1681526020019081526020016000206000610676610f7e565b73ffffffffffffffffffffffffffffffffffffffff1673ffffffffffffffffffffffffffffffffffffffff168152602001908152602001600020549050828110156106f6576040517f08c379a00000000000000000000000000000000000000000000000000000000081526004016106ed906122de565b60405180910390fd5b61070a85610702610f7e565b858403610f86565b60019150509392505050565b600060066000838152602001908152602001600020600101549050919050565b61073f82610716565b6107508161074b610f7e565b6113d5565b61075a8383611472565b505050565b60006012905090565b610770610f7e565b73ffffffffffffffffffffffffffffffffffffffff168173ffffffffffffffffffffffffffffffffffffffff16146107dd576040517f08c379a00000000000000000000000000000000000000000000000000000000081526004016107d49061235e565b60405180910390fd5b6107e78282611553565b5050565b600061088d6107f8610f7e565b848460026000610806610f7e565b73ffffffffffffffffffffffffffffffffffffffff1673ffffffffffffffffffffffffffffffffffffffff16815260200190815260200160002060008873ffffffffffffffffffffffffffffffffffffffff1673ffffffffffffffffffffffffffffffffffffffff168152602001908152602001600020546108889190612434565b610f86565b6001905092915050565b7f65d7a28e3265b37a6474929f336521b332c1681b933f6cb9f3376673440d862a6108c9816108c4610f7e565b6113d5565b6108d1611635565b50565b60008060009054906101000a900460ff16905090565b6000600160008373ffffffffffffffffffffffffffffffffffffffff1673ffffffffffffffffffffffffffffffffffffffff168152602001908152602001600020549050919050565b606060008060405180606001604052806000801b81526020017f9f2df0fed2c77648de5860a4cc508cd0818c85b8b8a1ab4ceeef8d981c8956a681526020017f65d7a28e3265b37a6474929f336521b332c1681b933f6cb9f3376673440d862a815250905060005b6003811015610a12576109eb8282600381106109e0577f4e487b7100000000000000000000000000000000000000000000000000000000600052603260045260246000fd5b602002015133610c0a565b156109ff5782806109fb906125fe565b9350505b8080610a0a906125fe565b91505061099b565b5060008267ffffffffffffffff811115610a55577f4e487b7100000000000000000000000000000000000000000000000000000000600052604160045260246000fd5b604051908082528060200260200182016040528015610a835781602001602082028036833780820191505090505b5090506000805b6003811015610b8257610ada848260038110610acf577f4e487b7100000000000000000000000000000000000000000000000000000000600052603260045260246000fd5b602002015133610c0a565b15610b6f57838160038110610b18577f4e487b7100000000000000000000000000000000000000000000000000000000600052603260045260246000fd5b6020020151838380610b29906125fe565b945081518110610b62577f4e487b7100000000000000000000000000000000000000000000000000000000600052603260045260246000fd5b6020026020010181815250505b8080610b7a906125fe565b915050610a8a565b508194505050505090565b7f9f2df0fed2c77648de5860a4cc508cd0818c85b8b8a1ab4ceeef8d981c8956a6610bbf81610bba610f7e565b6113d5565b610bc933836116d6565b5050565b7f65d7a28e3265b37a6474929f336521b332c1681b933f6cb9f3376673440d862a610bff81610bfa610f7e565b6113d5565b610c07611837565b50565b60006006600084815260200190815260200160002060000160008373ffffffffffffffffffffffffffffffffffffffff1673ffffffffffffffffffffffffffffffffffffffff16815260200190815260200160002060009054906101000a900460ff16905092915050565b606060058054610c84906125cc565b80601f0160208091040260200160405190810160405280929190818152602001828054610cb0906125cc565b8015610cfd5780601f10610cd257610100808354040283529160200191610cfd565b820191906000526020600020905b815481529060010190602001808311610ce057829003601f168201915b5050505050905090565b6000801b81565b60008060026000610d1d610f7e565b73ffffffffffffffffffffffffffffffffffffffff1673ffffffffffffffffffffffffffffffffffffffff16815260200190815260200160002060008573ffffffffffffffffffffffffffffffffffffffff1673ffffffffffffffffffffffffffffffffffffffff16815260200190815260200160002054905082811015610dda576040517f08c379a0000000000000000000000000000000000000000000000000000000008152600401610dd19061233e565b60405180910390fd5b610dee610de5610f7e565b85858403610f86565b600191505092915050565b6000610e0d610e06610f7e565b8484611151565b6001905092915050565b7f9f2df0fed2c77648de5860a4cc508cd0818c85b8b8a1ab4ceeef8d981c8956a681565b610e4482610716565b610e5581610e50610f7e565b6113d5565b610e5f8383611553565b505050565b6000600260008473ffffffffffffffffffffffffffffffffffffffff1673ffffffffffffffffffffffffffffffffffffffff16815260200190815260200160002060008373ffffffffffffffffffffffffffffffffffffffff1673ffffffffffffffffffffffffffffffffffffffff16815260200190815260200160002054905092915050565b7f65d7a28e3265b37a6474929f336521b332c1681b933f6cb9f3376673440d862a81565b505050565b60007f01ffc9a7000000000000000000000000000000000000000000000000000000007bffffffffffffffffffffffffffffffffffffffffffffffffffffffff1916827bffffffffffffffffffffffffffffffffffffffffffffffffffffffff1916149050919050565b600033905090565b600073ffffffffffffffffffffffffffffffffffffffff168373ffffffffffffffffffffffffffffffffffffffff161415610ff6576040517f08c379a0000000000000000000000000000000000000000000000000000000008152600401610fed9061231e565b60405180910390fd5b600073ffffffffffffffffffffffffffffffffffffffff168273ffffffffffffffffffffffffffffffffffffffff161415611066576040517f08c379a000000000000000000000000000000000000000000000000000000000815260040161105d9061227e565b60405180910390fd5b80600260008573ffffffffffffffffffffffffffffffffffffffff1673ffffffffffffffffffffffffffffffffffffffff16815260200190815260200160002060008473ffffffffffffffffffffffffffffffffffffffff1673ffffffffffffffffffffffffffffffffffffffff168152602001908152602001600020819055508173ffffffffffffffffffffffffffffffffffffffff168373ffffffffffffffffffffffffffffffffffffffff167f8c5be1e5ebec7d5bd14f71427d1e84f3dd0314c0f7b2291e5b200ac8c7c3b92583604051611144919061239e565b60405180910390a3505050565b600073ffffffffffffffffffffffffffffffffffffffff168373ffffffffffffffffffffffffffffffffffffffff1614156111c1576040517f08c379a00000000000000000000000000000000000000000000000000000000081526004016111b8906122fe565b60405180910390fd5b600073ffffffffffffffffffffffffffffffffffffffff168273ffffffffffffffffffffffffffffffffffffffff161415611231576040517f08c379a00000000000000000000000000000000000000000000000000000000081526004016112289061223e565b60405180910390fd5b61123c8383836118d9565b6000600160008573ffffffffffffffffffffffffffffffffffffffff1673ffffffffffffffffffffffffffffffffffffffff168152602001908152602001600020549050818110156112c3576040517f08c379a00000000000000000000000000000000000000000000000000000000081526004016112ba9061229e565b60405180910390fd5b818103600160008673ffffffffffffffffffffffffffffffffffffffff1673ffffffffffffffffffffffffffffffffffffffff1681526020019081526020016000208190555081600160008573ffffffffffffffffffffffffffffffffffffffff1673ffffffffffffffffffffffffffffffffffffffff16815260200190815260200160002060008282546113589190612434565b925050819055508273ffffffffffffffffffffffffffffffffffffffff168473ffffffffffffffffffffffffffffffffffffffff167fddf252ad1be2c89b69c2b068fc378daa952ba7f163c4a11628f55a4df523b3ef846040516113bc919061239e565b60405180910390a36113cf848484611931565b50505050565b6113df8282610c0a565b61146e576114048173ffffffffffffffffffffffffffffffffffffffff166014611936565b6114128360001c6020611936565b60405160200161142392919061214f565b6040516020818303038152906040526040517f08c379a000000000000000000000000000000000000000000000000000000000815260040161146591906121fc565b60405180910390fd5b5050565b61147c8282610c0a565b61154f5760016006600084815260200190815260200160002060000160008373ffffffffffffffffffffffffffffffffffffffff1673ffffffffffffffffffffffffffffffffffffffff16815260200190815260200160002060006101000a81548160ff0219169083151502179055506114f4610f7e565b73ffffffffffffffffffffffffffffffffffffffff168173ffffffffffffffffffffffffffffffffffffffff16837f2f8788117e7eff1d82e926ec794901d17c78024a50270940304540a733656f0d60405160405180910390a45b5050565b61155d8282610c0a565b156116315760006006600084815260200190815260200160002060000160008373ffffffffffffffffffffffffffffffffffffffff1673ffffffffffffffffffffffffffffffffffffffff16815260200190815260200160002060006101000a81548160ff0219169083151502179055506115d6610f7e565b73ffffffffffffffffffffffffffffffffffffffff168173ffffffffffffffffffffffffffffffffffffffff16837ff6391f5c32d9c69d2a47ea670b442974b53935d1edc7fd64eb21e047a839171b60405160405180910390a45b5050565b61163d6108d4565b61167c576040517f08c379a00000000000000000000000000000000000000000000000000000000081526004016116739061225e565b60405180910390fd5b60008060006101000a81548160ff0219169083151502179055507f5db9ee0a495bf2e6ff9c91a7834c1ba4fdd244a5e8aa4e537bd38aeae4b073aa6116bf610f7e565b6040516116cc9190612189565b60405180910390a1565b600073ffffffffffffffffffffffffffffffffffffffff168273ffffffffffffffffffffffffffffffffffffffff161415611746576040517f08c379a000000000000000000000000000000000000000000000000000000000815260040161173d9061237e565b60405180910390fd5b611752600083836118d9565b80600360008282546117649190612434565b9250508190555080600160008473ffffffffffffffffffffffffffffffffffffffff1673ffffffffffffffffffffffffffffffffffffffff16815260200190815260200160002060008282546117ba9190612434565b925050819055508173ffffffffffffffffffffffffffffffffffffffff16600073ffffffffffffffffffffffffffffffffffffffff167fddf252ad1be2c89b69c2b068fc378daa952ba7f163c4a11628f55a4df523b3ef8360405161181f919061239e565b60405180910390a361183360008383611931565b5050565b61183f6108d4565b1561187f576040517f08c379a0000000000000000000000000000000000000000000000000000000008152600401611876906122be565b60405180910390fd5b60016000806101000a81548160ff0219169083151502179055507f62e78cea01bee320cd4e420270b5ea74000d11b0c9f74754ebdbfc544b05a2586118c2610f7e565b6040516118cf9190612189565b60405180910390a1565b6118e16108d4565b15611921576040517f08c379a0000000000000000000000000000000000000000000000000000000008152600401611918906122be565b60405180910390fd5b61192c838383610f0f565b505050565b505050565b606060006002836002611949919061248a565b6119539190612434565b67ffffffffffffffff811115611992577f4e487b7100000000000000000000000000000000000000000000000000000000600052604160045260246000fd5b6040519080825280601f01601f1916602001820160405280156119c45781602001600182028036833780820191505090505b5090507f300000000000000000000000000000000000000000000000000000000000000081600081518110611a22577f4e487b7100000000000000000000000000000000000000000000000000000000600052603260045260246000fd5b60200101907effffffffffffffffffffffffffffffffffffffffffffffffffffffffffffff1916908160001a9053507f780000000000000000000000000000000000000000000000000000000000000081600181518110611aac577f4e487b7100000000000000000000000000000000000000000000000000000000600052603260045260246000fd5b60200101907effffffffffffffffffffffffffffffffffffffffffffffffffffffffffffff1916908160001a90535060006001846002611aec919061248a565b611af69190612434565b90505b6001811115611be2577f3031323334353637383961626364656600000000000000000000000000000000600f861660108110611b5e577f4e487b7100000000000000000000000000000000000000000000000000000000600052603260045260246000fd5b1a60f81b828281518110611b9b577f4e487b7100000000000000000000000000000000000000000000000000000000600052603260045260246000fd5b60200101907effffffffffffffffffffffffffffffffffffffffffffffffffffffffffffff1916908160001a905350600485901c945080611bdb906125a2565b9050611af9565b5060008414611c26576040517f08c379a0000000000000000000000000000000000000000000000000000000008152600401611c1d9061221e565b60405180910390fd5b8091505092915050565b600081359050611c3f81612a24565b92915050565b600081359050611c5481612a3b565b92915050565b600081359050611c6981612a52565b92915050565b600081359050611c7e81612a69565b92915050565b600060208284031215611c9657600080fd5b6000611ca484828501611c30565b91505092915050565b60008060408385031215611cc057600080fd5b6000611cce85828601611c30565b9250506020611cdf85828601611c30565b9150509250929050565b600080600060608486031215611cfe57600080fd5b6000611d0c86828701611c30565b9350506020611d1d86828701611c30565b9250506040611d2e86828701611c6f565b9150509250925092565b60008060408385031215611d4b57600080fd5b6000611d5985828601611c30565b9250506020611d6a85828601611c6f565b9150509250929050565b600060208284031215611d8657600080fd5b6000611d9484828501611c45565b91505092915050565b60008060408385031215611db057600080fd5b6000611dbe85828601611c45565b9250506020611dcf85828601611c30565b9150509250929050565b600060208284031215611deb57600080fd5b6000611df984828501611c5a565b91505092915050565b600060208284031215611e1457600080fd5b6000611e2284828501611c6f565b91505092915050565b6000611e378383611ebf565b60208301905092915050565b611e4c816124e4565b82525050565b6000611e5d826123e4565b611e678185612407565b9350611e72836123d4565b8060005b83811015611ea3578151611e8a8882611e2b565b9750611e95836123fa565b925050600181019050611e76565b5085935050505092915050565b611eb9816124f6565b82525050565b611ec881612502565b82525050565b611ed781612502565b82525050565b6000611ee8826123ef565b611ef28185612418565b9350611f0281856020860161256f565b611f0b816126a5565b840191505092915050565b6000611f21826123ef565b611f2b8185612429565b9350611f3b81856020860161256f565b80840191505092915050565b6000611f54602083612418565b9150611f5f826126b6565b602082019050919050565b6000611f77602383612418565b9150611f82826126df565b604082019050919050565b6000611f9a601483612418565b9150611fa58261272e565b602082019050919050565b6000611fbd602283612418565b9150611fc882612757565b604082019050919050565b6000611fe0602683612418565b9150611feb826127a6565b604082019050919050565b6000612003601083612418565b915061200e826127f5565b602082019050919050565b6000612026602883612418565b91506120318261281e565b604082019050919050565b6000612049602583612418565b91506120548261286d565b604082019050919050565b600061206c602483612418565b9150612077826128bc565b604082019050919050565b600061208f601783612429565b915061209a8261290b565b601782019050919050565b60006120b2602583612418565b91506120bd82612934565b604082019050919050565b60006120d5601183612429565b91506120e082612983565b601182019050919050565b60006120f8602f83612418565b9150612103826129ac565b604082019050919050565b600061211b601f83612418565b9150612126826129fb565b602082019050919050565b61213a81612558565b82525050565b61214981612562565b82525050565b600061215a82612082565b91506121668285611f16565b9150612171826120c8565b915061217d8284611f16565b91508190509392505050565b600060208201905061219e6000830184611e43565b92915050565b600060208201905081810360008301526121be8184611e52565b905092915050565b60006020820190506121db6000830184611eb0565b92915050565b60006020820190506121f66000830184611ece565b92915050565b600060208201905081810360008301526122168184611edd565b905092915050565b6000602082019050818103600083015261223781611f47565b9050919050565b6000602082019050818103600083015261225781611f6a565b9050919050565b6000602082019050818103600083015261227781611f8d565b9050919050565b6000602082019050818103600083015261229781611fb0565b9050919050565b600060208201905081810360008301526122b781611fd3565b9050919050565b600060208201905081810360008301526122d781611ff6565b9050919050565b600060208201905081810360008301526122f781612019565b9050919050565b600060208201905081810360008301526123178161203c565b9050919050565b600060208201905081810360008301526123378161205f565b9050919050565b60006020820190508181036000830152612357816120a5565b9050919050565b60006020820190508181036000830152612377816120eb565b9050919050565b600060208201905081810360008301526123978161210e565b9050919050565b60006020820190506123b36000830184612131565b92915050565b60006020820190506123ce6000830184612140565b92915050565b6000819050602082019050919050565b600081519050919050565b600081519050919050565b6000602082019050919050565b600082825260208201905092915050565b600082825260208201905092915050565b600081905092915050565b600061243f82612558565b915061244a83612558565b9250827fffffffffffffffffffffffffffffffffffffffffffffffffffffffffffffffff0382111561247f5761247e612647565b5b828201905092915050565b600061249582612558565b91506124a083612558565b9250817fffffffffffffffffffffffffffffffffffffffffffffffffffffffffffffffff04831182151516156124d9576124d8612647565b5b828202905092915050565b60006124ef82612538565b9050919050565b60008115159050919050565b6000819050919050565b60007fffffffff0000000000000000000000000000000000000000000000000000000082169050919050565b600073ffffffffffffffffffffffffffffffffffffffff82169050919050565b6000819050919050565b600060ff82169050919050565b60005b8381101561258d578082015181840152602081019050612572565b8381111561259c576000848401525b50505050565b60006125ad82612558565b915060008214156125c1576125c0612647565b5b600182039050919050565b600060028204905060018216806125e457607f821691505b602082108114156125f8576125f7612676565b5b50919050565b600061260982612558565b91507fffffffffffffffffffffffffffffffffffffffffffffffffffffffffffffffff82141561263c5761263b612647565b5b600182019050919050565b7f4e487b7100000000000000000000000000000000000000000000000000000000600052601160045260246000fd5b7f4e487b7100000000000000000000000000000000000000000000000000000000600052602260045260246000fd5b6000601f19601f8301169050919050565b7f537472696e67733a20686578206c656e67746820696e73756666696369656e74600082015250565b7f45524332303a207472616e7366657220746f20746865207a65726f206164647260008201527f6573730000000000000000000000000000000000000000000000000000000000602082015250565b7f5061757361626c653a206e6f7420706175736564000000000000000000000000600082015250565b7f45524332303a20617070726f766520746f20746865207a65726f20616464726560008201527f7373000000000000000000000000000000000000000000000000000000000000602082015250565b7f45524332303a207472616e7366657220616d6f756e742065786365656473206260008201527f616c616e63650000000000000000000000000000000000000000000000000000602082015250565b7f5061757361626c653a2070617573656400000000000000000000000000000000600082015250565b7f45524332303a207472616e7366657220616d6f756e742065786365656473206160008201527f6c6c6f77616e6365000000000000000000000000000000000000000000000000602082015250565b7f45524332303a207472616e736665722066726f6d20746865207a65726f20616460008201527f6472657373000000000000000000000000000000000000000000000000000000602082015250565b7f45524332303a20617070726f76652066726f6d20746865207a65726f2061646460008201527f7265737300000000000000000000000000000000000000000000000000000000602082015250565b7f416363657373436f6e74726f6c3a206163636f756e7420000000000000000000600082015250565b7f45524332303a2064656372656173656420616c6c6f77616e63652062656c6f7760008201527f207a65726f000000000000000000000000000000000000000000000000000000602082015250565b7f206973206d697373696e6720726f6c6520000000000000000000000000000000600082015250565b7f416363657373436f6e74726f6c3a2063616e206f6e6c792072656e6f756e636560008201527f20726f6c657320666f722073656c660000000000000000000000000000000000602082015250565b7f45524332303a206d696e7420746f20746865207a65726f206164647265737300600082015250565b612a2d816124e4565b8114612a3857600080fd5b50565b612a4481612502565b8114612a4f57600080fd5b50565b612a5b8161250c565b8114612a6657600080fd5b50565b612a7281612558565b8114612a7d57600080fd5b5056fea26469706673582212206658a347451dac588d58b4c9c543cc08bd82d563e612e54d50afe6d1a7cf7f4264736f6c63430008030033",
  "linkReferences": {},
  "deployedLinkReferences": {}
}