{
  "_format": "hh-sol-artifact-1",
  "contractName": "Staker",
  "sourceName": "contracts/Staker.sol",
  "abi": [
    {
      "inputs": [
        {
          "internalType": "address",
          "name": "_tokenAddress",
          "type": "address"
        }
      ],
      "stateMutability": "nonpayable",
      "type": "constructor"
    },
    {
      "anonymous": false,
      "inputs": [
        {
          "indexed": true,
          "internalType": "address",
          "name": "previousOwner",
          "type": "address"
        },
        {
          "indexed": true,
          "internalType": "address",
          "name": "newOwner",
          "type": "address"
        }
      ],
      "name": "OwnershipTransferred",
      "type": "event"
    },
    {
      "inputs": [
        {
          "internalType": "uint256",
          "name": "amount",
          "type": "uint256"
        }
      ],
      "name": "depositTokens",
      "outputs": [],
      "stateMutability": "nonpayable",
      "type": "function"
    },
    {
      "inputs": [
        {
          "internalType": "address",
          "name": "",
          "type": "address"
        }
      ],
      "name": "depositedAmount",
      "outputs": [
        {
          "internalType": "uint256",
          "name": "",
          "type": "uint256"
        }
      ],
      "stateMutability": "view",
      "type": "function"
    },
    {
      "inputs": [
        {
          "internalType": "address",
          "name": "",
          "type": "address"
        }
      ],
      "name": "lastDeposited",
      "outputs": [
        {
          "internalType": "uint256",
          "name": "",
          "type": "uint256"
        }
      ],
      "stateMutability": "view",
      "type": "function"
    },
    {
      "inputs": [],
      "name": "owner",
      "outputs": [
        {
          "internalType": "address",
          "name": "",
          "type": "address"
        }
      ],
      "stateMutability": "view",
      "type": "function"
    },
    {
      "inputs": [],
      "name": "renounceOwnership",
      "outputs": [],
      "stateMutability": "nonpayable",
      "type": "function"
    },
    {
      "inputs": [],
      "name": "tokenAddress",
      "outputs": [
        {
          "internalType": "contract USDC",
          "name": "",
          "type": "address"
        }
      ],
      "stateMutability": "view",
      "type": "function"
    },
    {
      "inputs": [
        {
          "internalType": "address",
          "name": "newOwner",
          "type": "address"
        }
      ],
      "name": "transferOwnership",
      "outputs": [],
      "stateMutability": "nonpayable",
      "type": "function"
    },
    {
      "inputs": [],
      "name": "treasuryAmount",
      "outputs": [
        {
          "internalType": "uint256",
          "name": "",
          "type": "uint256"
        }
      ],
      "stateMutability": "view",
      "type": "function"
    },
    {
      "inputs": [
        {
          "internalType": "uint256",
          "name": "amount",
          "type": "uint256"
        }
      ],
      "name": "withdrawTokens",
      "outputs": [],
      "stateMutability": "nonpayable",
      "type": "function"
    }
  ],
  "bytecode": "0x60806040523480156200001157600080fd5b506040516200122138038062001221833981810160405281019062000037919062000182565b620000576200004b6200009f60201b60201c565b620000a760201b60201c565b80600160006101000a81548173ffffffffffffffffffffffffffffffffffffffff021916908373ffffffffffffffffffffffffffffffffffffffff16021790555050620001fc565b600033905090565b60008060009054906101000a900473ffffffffffffffffffffffffffffffffffffffff169050816000806101000a81548173ffffffffffffffffffffffffffffffffffffffff021916908373ffffffffffffffffffffffffffffffffffffffff1602179055508173ffffffffffffffffffffffffffffffffffffffff168173ffffffffffffffffffffffffffffffffffffffff167f8be0079c531659141344cd1fd0a4f28419497f9722a3daafe3b4186f6b6457e060405160405180910390a35050565b6000815190506200017c81620001e2565b92915050565b6000602082840312156200019557600080fd5b6000620001a5848285016200016b565b91505092915050565b6000620001bb82620001c2565b9050919050565b600073ffffffffffffffffffffffffffffffffffffffff82169050919050565b620001ed81620001ae565b8114620001f957600080fd5b50565b611015806200020c6000396000f3fe608060405234801561001057600080fd5b50600436106100935760003560e01c80638da5cb5b116100665780638da5cb5b1461010c5780639d76ea581461012a578063a574dc4d14610148578063dd49756e14610178578063f2fde38b1461019457610093565b8063315a095d14610098578063368acb09146100b45780634a4643f7146100d2578063715018a614610102575b600080fd5b6100b260048036038101906100ad91906109c3565b6101b0565b005b6100bc610374565b6040516100c99190610c50565b60405180910390f35b6100ec60048036038101906100e79190610971565b61037a565b6040516100f99190610c50565b60405180910390f35b61010a610392565b005b61011461041a565b6040516101219190610af1565b60405180910390f35b610132610443565b60405161013f9190610b95565b60405180910390f35b610162600480360381019061015d9190610971565b610469565b60405161016f9190610c50565b60405180910390f35b610192600480360381019061018d91906109c3565b610481565b005b6101ae60048036038101906101a99190610971565b610717565b005b80600460003373ffffffffffffffffffffffffffffffffffffffff1673ffffffffffffffffffffffffffffffffffffffff168152602001908152602001600020541015610232576040517f08c379a000000000000000000000000000000000000000000000000000000000815260040161022990610c30565b60405180910390fd5b611c20600360003373ffffffffffffffffffffffffffffffffffffffff1673ffffffffffffffffffffffffffffffffffffffff16815260200190815260200160002054426102809190610d5d565b10156102c1576040517f08c379a00000000000000000000000000000000000000000000000000000000081526004016102b890610bf0565b60405180910390fd5b600160009054906101000a900473ffffffffffffffffffffffffffffffffffffffff1673ffffffffffffffffffffffffffffffffffffffff1663a9059cbb33836040518363ffffffff1660e01b815260040161031e929190610b6c565b602060405180830381600087803b15801561033857600080fd5b505af115801561034c573d6000803e3d6000fd5b505050506040513d601f19601f82011682018060405250810190610370919061099a565b5050565b60025481565b60046020528060005260406000206000915090505481565b61039a61080f565b73ffffffffffffffffffffffffffffffffffffffff166103b861041a565b73ffffffffffffffffffffffffffffffffffffffff161461040e576040517f08c379a000000000000000000000000000000000000000000000000000000000815260040161040590610c10565b60405180910390fd5b6104186000610817565b565b60008060009054906101000a900473ffffffffffffffffffffffffffffffffffffffff16905090565b600160009054906101000a900473ffffffffffffffffffffffffffffffffffffffff1681565b60036020528060005260406000206000915090505481565b80600160009054906101000a900473ffffffffffffffffffffffffffffffffffffffff1673ffffffffffffffffffffffffffffffffffffffff1663dd62ed3e33306040518363ffffffff1660e01b81526004016104df929190610b0c565b60206040518083038186803b1580156104f757600080fd5b505afa15801561050b573d6000803e3d6000fd5b505050506040513d601f19601f8201168201806040525081019061052f91906109ec565b1015610570576040517f08c379a000000000000000000000000000000000000000000000000000000000815260040161056790610bb0565b60405180910390fd5b600061059a6103e861058c6002856108db90919063ffffffff16565b6108f190919063ffffffff16565b905080600260008282546105ae9190610c7c565b9250508190555042600360003373ffffffffffffffffffffffffffffffffffffffff1673ffffffffffffffffffffffffffffffffffffffff1681526020019081526020016000208190555061060c818361090790919063ffffffff16565b600460003373ffffffffffffffffffffffffffffffffffffffff1673ffffffffffffffffffffffffffffffffffffffff168152602001908152602001600020600082825461065a9190610c7c565b92505081905550600160009054906101000a900473ffffffffffffffffffffffffffffffffffffffff1673ffffffffffffffffffffffffffffffffffffffff166323b872dd3330856040518463ffffffff1660e01b81526004016106c093929190610b35565b602060405180830381600087803b1580156106da57600080fd5b505af11580156106ee573d6000803e3d6000fd5b505050506040513d601f19601f82011682018060405250810190610712919061099a565b505050565b61071f61080f565b73ffffffffffffffffffffffffffffffffffffffff1661073d61041a565b73ffffffffffffffffffffffffffffffffffffffff1614610793576040517f08c379a000000000000000000000000000000000000000000000000000000000815260040161078a90610c10565b60405180910390fd5b600073ffffffffffffffffffffffffffffffffffffffff168173ffffffffffffffffffffffffffffffffffffffff161415610803576040517f08c379a00000000000000000000000000000000000000000000000000000000081526004016107fa90610bd0565b60405180910390fd5b61080c81610817565b50565b600033905090565b60008060009054906101000a900473ffffffffffffffffffffffffffffffffffffffff169050816000806101000a81548173ffffffffffffffffffffffffffffffffffffffff021916908373ffffffffffffffffffffffffffffffffffffffff1602179055508173ffffffffffffffffffffffffffffffffffffffff168173ffffffffffffffffffffffffffffffffffffffff167f8be0079c531659141344cd1fd0a4f28419497f9722a3daafe3b4186f6b6457e060405160405180910390a35050565b600081836108e99190610d03565b905092915050565b600081836108ff9190610cd2565b905092915050565b600081836109159190610d5d565b905092915050565b60008135905061092c81610f9a565b92915050565b60008151905061094181610fb1565b92915050565b60008135905061095681610fc8565b92915050565b60008151905061096b81610fc8565b92915050565b60006020828403121561098357600080fd5b60006109918482850161091d565b91505092915050565b6000602082840312156109ac57600080fd5b60006109ba84828501610932565b91505092915050565b6000602082840312156109d557600080fd5b60006109e384828501610947565b91505092915050565b6000602082840312156109fe57600080fd5b6000610a0c8482850161095c565b91505092915050565b610a1e81610d91565b82525050565b610a2d81610dd9565b82525050565b6000610a40602383610c6b565b9150610a4b82610e5b565b604082019050919050565b6000610a63602683610c6b565b9150610a6e82610eaa565b604082019050919050565b6000610a86602683610c6b565b9150610a9182610ef9565b604082019050919050565b6000610aa9602083610c6b565b9150610ab482610f48565b602082019050919050565b6000610acc601c83610c6b565b9150610ad782610f71565b602082019050919050565b610aeb81610dcf565b82525050565b6000602082019050610b066000830184610a15565b92915050565b6000604082019050610b216000830185610a15565b610b2e6020830184610a15565b9392505050565b6000606082019050610b4a6000830186610a15565b610b576020830185610a15565b610b646040830184610ae2565b949350505050565b6000604082019050610b816000830185610a15565b610b8e6020830184610ae2565b9392505050565b6000602082019050610baa6000830184610a24565b92915050565b60006020820190508181036000830152610bc981610a33565b9050919050565b60006020820190508181036000830152610be981610a56565b9050919050565b60006020820190508181036000830152610c0981610a79565b9050919050565b60006020820190508181036000830152610c2981610a9c565b9050919050565b60006020820190508181036000830152610c4981610abf565b9050919050565b6000602082019050610c656000830184610ae2565b92915050565b600082825260208201905092915050565b6000610c8782610dcf565b9150610c9283610dcf565b9250827fffffffffffffffffffffffffffffffffffffffffffffffffffffffffffffffff03821115610cc757610cc6610dfd565b5b828201905092915050565b6000610cdd82610dcf565b9150610ce883610dcf565b925082610cf857610cf7610e2c565b5b828204905092915050565b6000610d0e82610dcf565b9150610d1983610dcf565b9250817fffffffffffffffffffffffffffffffffffffffffffffffffffffffffffffffff0483118215151615610d5257610d51610dfd565b5b828202905092915050565b6000610d6882610dcf565b9150610d7383610dcf565b925082821015610d8657610d85610dfd565b5b828203905092915050565b6000610d9c82610daf565b9050919050565b60008115159050919050565b600073ffffffffffffffffffffffffffffffffffffffff82169050919050565b6000819050919050565b6000610de482610deb565b9050919050565b6000610df682610daf565b9050919050565b7f4e487b7100000000000000000000000000000000000000000000000000000000600052601160045260246000fd5b7f4e487b7100000000000000000000000000000000000000000000000000000000600052601260045260246000fd5b7f546f6b656e732077657265206e6f7420616c6c6f77656420746f20626520737060008201527f656e740000000000000000000000000000000000000000000000000000000000602082015250565b7f4f776e61626c653a206e6577206f776e657220697320746865207a65726f206160008201527f6464726573730000000000000000000000000000000000000000000000000000602082015250565b7f416c6c6f77656420746f207769746864726177206f6e6c79206166746572203260008201527f20686f7572730000000000000000000000000000000000000000000000000000602082015250565b7f4f776e61626c653a2063616c6c6572206973206e6f7420746865206f776e6572600082015250565b7f496e73756666696369656e742066756e6473206465706f736974656400000000600082015250565b610fa381610d91565b8114610fae57600080fd5b50565b610fba81610da3565b8114610fc557600080fd5b50565b610fd181610dcf565b8114610fdc57600080fd5b5056fea2646970667358221220cd3170bdd67456c0bdf24e69e07ea9bf1b5120ad1ba09c4bd4ebe816a36650ab64736f6c63430008030033",
  "linkReferences": {},
  "deployedLinkReferences": {}
}